:1000000012C019C018C017C016C015C014C013C044
:1000100012C011C010C00FC00EC00DC00CC00BC06C
:100020000AC009C008C011241FBECFE5D4E0DEBF5E
:10003000CDBF02D0A0C0E4CFAF92BF92CF92DF92EB
:10004000EF92FF920F931F938FEF87BB18BA87E849
:1000500086B980E487B920E030E070E1A72E68E13E
:10006000B62E58E0C52E4CE0D42E94E0E92E86E062
:10007000F82E02E013E0B1E0A1E8F0E8E0EC70E473
:1000800060E650E240E3369A3699FECF84B195B1EE
:10009000821B930B97FF03C0909581959F4FC39749
:1000A00014F024B135B182E02032380700F581E048
:1000B000203E380708F04DC0203E310550F4203A6C
:1000C0003105E8F520363105C0F52032310598F5C7
:1000D00030C081E02036380728F481E0203238072C
:1000E00090F52FC081E0203A380778F130C083E0E6
:1000F0002032380768F482E0213E380790F582E02C
:10010000203A380760F582E02036380730F523C002
:1001100083E0203A380728F483E02036380728F5B2
:1001200022C083E02F3D380710F184E020303807EB
:1001300000F5A8BAA8CF48BBA6CF58BBA4CF68BBD0
:10014000A2CF78BBA0CFE8BB9ECFF8BB9CCFA8BB0B
:100150009ACFB8BB98CF18BB96CF08BB94CFF8BA4C
:1001600092CFE8BA90CFD8BA8ECFC8BA8CCFB8BAEF
:0A0170008ACF18BA88CFF894FFCFA9
:00000001FF
